:100000000C943C000C9459000C9459000C94590029
:100010000C9459000C9459000C9459000C945900FC
:100020000C9459000C9459000C9459000C947700CE
:100030000C9459000C9459000C9459000C945900DC
:100040000C9459000C9459000C945B000C945900CA
:100050000C9459000C9459000C9459000C945900BC
:100060000C9459000C945900140128013C015001D2
:10007000640170018401A30111241FBECFEFD8E0F9
:10008000DEBFCDBF11E0A0E0B1E0ECE3F7E002C0DD
:1000900005900D92A430B107D9F723E0A4E0B1E0B8
:1000A00001C01D92AD30B207E1F70E9413030C941A
:1000B0009C030C9400001F920F920FB60F92112414
:1000C0008F93EF93FF93E091080181E08E0F80936F
:1000D0000801F0E08091C600E45FFE4F8083FF914D
:1000E000EF918F910F900FBE0F901F9018951F9258
:1000F0000F920FB60F9211248F939F93809102015C
:1001000090910301892B49F08091020190910301A4
:10011000019790930301809302019F918F910F901B
:100120000FBE0F901F901895E2ECF0E080818F7B5E
:10013000808380818F77808380818F7E80838081A0
:100140008F7D80838081877F8083808182608083B0
:10015000808184608083E1ECF0E080818B7F80830C
:10016000A0ECB0E08C918D7F8C9387E690E090932B
:10017000C5008093C4008081886080838081806115
:100180008083808180688083089580E284B985B10E
:10019000806285B9089580ED97E0909389008093FF
:1001A000880010928000E1E8F0E010821092850053
:1001B0001092840086B386BB82E080936F008AE051
:1001C00080830895E82FF0E0E45FFE4F8081813F57
:1001D00051F0823F99F0803FB1F480910A01816033
:1001E00080930A01089580910A01806180930A0139
:1001F00080910A01826080930A01089580910A012A
:10020000846080930A010895CF93C82FC8C02091BD
:100210000401822F90E08830910508F0B9C0FC01FC
:10022000EC5CFF4F0C949603E0910601F0E0E45F74
:10023000FE4F8081853521F42F5F20930401AAC0F1
:100240001092040180910601815080930601A2C0A2
:10025000E0910601F0E0E45FFE4F80818E3421F4EE
:100260002F5F2093040196C0109204018091060133
:100270008150809306018EC0E0910601F0E0E45FBA
:10028000FE4F8081853421F42F5F2093040182C0CA
:1002900010920401809106018150809306017AC07A
:1002A000E0910601F0E0E45FFE4F8081823521F4A9
:1002B0002F5F209304016EC010920401809106010B
:1002C00081508093060166C0E0910601F0E0E45F92
:1002D000FE4F8081809309012F5F209304015AC053
:1002E000E0910601F0E0E45FFE4F8081811104C0DF
:1002F0002F5F209304014EC01092040180910601EB
:1003000081508093060146C0E0910601F0E0E45F71
:10031000FE4F80818A3379F49091090186E3892721
:1003200080930C022F5F20930401809106018F5F60
:1003300080930B012FC0109204018091060181501F
:100340008093060127C080910901823058F0E09126
:100350000601F0E0E45FFE4F908120910C029227AD
:1003600090930C02815080930901811113C0109267
:100370000401E0910601F0E0E45FFE4F908180917E
:100380000C02981307C080910B010E94E20002C08A
:1003900010920401809106018F5F80930601809185
:1003A00006018C1334CFCF910895E091050191E0BF
:1003B0009E0F90930501F0E0E35FFD4F95E590837C
:1003C000E091050191E09E0F90930501F0E0E35F5D
:1003D000FD4F9EE49083E091050191E09E0F909384
:1003E0000501F0E0E35FFD4F95E49083E0910501A6
:1003F00091E09E0F90930501F0E0E35FFD4F92E5E1
:100400009083823F09F469C028F4803F51F0813F16
:10041000C1F1E6C0853F09F48CC0863F09F4B5C040
:10042000DFC0E091050191E09E0F90930501F0E09F
:10043000E35FFD4F92E09083E091050191E09E0F14
:1004400090930501F0E0E35FFD4F1082E09105011C
:1004500091E09E0F90930501F0E0E35FFD4F9AE37A
:100460009083E091050191E09E0F90930501F0E0EB
:10047000E35FFD4F808380910A018E7F80930A01A4
:10048000AFC0E091050181E08E0F80930501F0E09F
:10049000E35FFD4F82E08083E091050181E08E0FF4
:1004A00080930501F0E0E35FFD4F1082E0910501CC
:1004B00081E08E0F80930501F0E0E35FFD4F8AE35A
:1004C0008083E091050181E08E0F80930501F0E0CB
:1004D000E35FFD4F81EF808383C0E091050181E000
:1004E0008E0F80930501F0E0E35FFD4F82E0808393
:1004F000E091050181E08E0F80930501F0E0E35F5C
:10050000FD4F1082E091050181E08E0F809305017F
:10051000F0E0E35FFD4F8AE38083E091050181E035
:100520008E0F80930501F0E0E35FFD4F82EF808343
:1005300057C0E091050181E08E0F80930501F0E046
:10054000E35FFD4F82E08083E091050181E08E0F43
:1005500080930501F0E0E35FFD4F1082E09105011B
:1005600081E08E0F80930501F0E0E35FFD4F8AE3A9
:100570008083E091050181E08E0F80930501F0E01A
:10058000E35FFD4F85EF80832BC0E091050181E0A3
:100590008E0F80930501F0E0E35FFD4F82E08083E2
:1005A000E091050181E08E0F80930501F0E0E35FAB
:1005B000FD4F1082E091050181E08E0F80930501CF
:1005C000F0E0E35FFD4F8AE38083E091050181E085
:1005D0008E0F80930501F0E0E35FFD4F86EF80838F
:1005E00010920C02809107010BC0E82FF0E0E35F4E
:1005F000FD4F908120910C02922790930C028F5F07
:1006000090910501891788F380910C02882351F09D
:10061000E091050191E09E0F90930501F0E0E35F0A
:10062000FD4F808308950E9494000E94C5000E949F
:10063000CB0078949091080180910601981721F0E1
:10064000809108010E94040180910A0180FF03C08B
:1006500080EF0E94D50180910A0181FF1AC080912C
:10066000000190910101883B9B4058F4809100016A
:10067000909101018C599F4F90930101809300014B
:1006800003C085EF0E94D50180910A018D7F809380
:100690000A0180910A0182FF1AC0809100019091A5
:1006A00001018536910558F080910001909101017A
:1006B00084569109909301018093000103C086EF55
:1006C0000E94D50180910A018B7F80930A0180915D
:1006D000020190910301892B11F580910001909105
:1006E000010190930301809302012D9B04C085B109
:1006F0008F7D85B914C085B1806285B910C08091A5
:10070000C00085FFFCCFE091070181E08E0F809350
:100710000701F0E0E35FFD4F80818093C600909178
:100720000701809105019813EACF84CFEE0FFF1FD8
:0C0730000590F491E02D0994F894FFCF9F
:04073C00F401F401CF
:00000001FF
